{
  "_format": "hh-sol-artifact-1",
  "contractName": "rockPaperScissors",
  "sourceName": "contracts/3_rockPaperScissors.sol",
  "abi": [
    {
      "inputs": [
        {
          "internalType": "address",
          "name": "rps",
          "type": "address"
        }
      ],
      "stateMutability": "nonpayable",
      "type": "constructor"
    },
    {
      "anonymous": false,
      "inputs": [
        {
          "indexed": false,
          "internalType": "address",
          "name": "player2",
          "type": "address"
        },
        {
          "indexed": false,
          "internalType": "uint256",
          "name": "gameID",
          "type": "uint256"
        }
      ],
      "name": "gameAccepted",
      "type": "event"
    },
    {
      "anonymous": false,
      "inputs": [
        {
          "indexed": false,
          "internalType": "address",
          "name": "challenger",
          "type": "address"
        },
        {
          "indexed": false,
          "internalType": "address",
          "name": "challenged",
          "type": "address"
        },
        {
          "indexed": false,
          "internalType": "uint256",
          "name": "betAmount",
          "type": "uint256"
        }
      ],
      "name": "newGame",
      "type": "event"
    },
    {
      "anonymous": false,
      "inputs": [
        {
          "indexed": false,
          "internalType": "enum rockPaperScissors.Move",
          "name": "player1Move",
          "type": "uint8"
        },
        {
          "indexed": false,
          "internalType": "uint256",
          "name": "betAmount",
          "type": "uint256"
        }
      ],
      "name": "noWinner",
      "type": "event"
    },
    {
      "anonymous": false,
      "inputs": [
        {
          "indexed": false,
          "internalType": "address",
          "name": "player1",
          "type": "address"
        },
        {
          "indexed": false,
          "internalType": "enum rockPaperScissors.Move",
          "name": "player1Move",
          "type": "uint8"
        },
        {
          "indexed": false,
          "internalType": "address",
          "name": "player2",
          "type": "address"
        },
        {
          "indexed": false,
          "internalType": "enum rockPaperScissors.Move",
          "name": "player2Move",
          "type": "uint8"
        },
        {
          "indexed": false,
          "internalType": "uint256",
          "name": "potAmount",
          "type": "uint256"
        }
      ],
      "name": "player1Wins",
      "type": "event"
    },
    {
      "anonymous": false,
      "inputs": [
        {
          "indexed": false,
          "internalType": "address",
          "name": "player2",
          "type": "address"
        },
        {
          "indexed": false,
          "internalType": "enum rockPaperScissors.Move",
          "name": "player2Move",
          "type": "uint8"
        },
        {
          "indexed": false,
          "internalType": "address",
          "name": "player1",
          "type": "address"
        },
        {
          "indexed": false,
          "internalType": "enum rockPaperScissors.Move",
          "name": "player1Move",
          "type": "uint8"
        },
        {
          "indexed": false,
          "internalType": "uint256",
          "name": "potAmount",
          "type": "uint256"
        }
      ],
      "name": "player2Wins",
      "type": "event"
    },
    {
      "inputs": [],
      "name": "_zero",
      "outputs": [
        {
          "internalType": "address",
          "name": "",
          "type": "address"
        }
      ],
      "stateMutability": "view",
      "type": "function"
    },
    {
      "inputs": [],
      "name": "acceptChallengeWallet",
      "outputs": [],
      "stateMutability": "nonpayable",
      "type": "function"
    },
    {
      "inputs": [],
      "name": "acceptChallengeWinnings",
      "outputs": [],
      "stateMutability": "nonpayable",
      "type": "function"
    },
    {
      "inputs": [
        {
          "internalType": "address",
          "name": "secondPlayer",
          "type": "address"
        },
        {
          "internalType": "uint256",
          "name": "bet",
          "type": "uint256"
        }
      ],
      "name": "challengGameWallet",
      "outputs": [],
      "stateMutability": "nonpayable",
      "type": "function"
    },
    {
      "inputs": [
        {
          "internalType": "address",
          "name": "secondPlayer",
          "type": "address"
        },
        {
          "internalType": "uint256",
          "name": "bet",
          "type": "uint256"
        }
      ],
      "name": "challengGameWinnings",
      "outputs": [],
      "stateMutability": "nonpayable",
      "type": "function"
    },
    {
      "inputs": [],
      "name": "checkWinner",
      "outputs": [],
      "stateMutability": "nonpayable",
      "type": "function"
    },
    {
      "inputs": [
        {
          "internalType": "uint256",
          "name": "gameID",
          "type": "uint256"
        }
      ],
      "name": "findGameWallet",
      "outputs": [],
      "stateMutability": "nonpayable",
      "type": "function"
    },
    {
      "inputs": [
        {
          "internalType": "uint256",
          "name": "gameID",
          "type": "uint256"
        }
      ],
      "name": "findGameWinnings",
      "outputs": [],
      "stateMutability": "nonpayable",
      "type": "function"
    },
    {
      "inputs": [
        {
          "internalType": "uint256",
          "name": "",
          "type": "uint256"
        }
      ],
      "name": "games",
      "outputs": [
        {
          "internalType": "address",
          "name": "player1Address",
          "type": "address"
        },
        {
          "internalType": "address",
          "name": "player2Address",
          "type": "address"
        },
        {
          "internalType": "enum rockPaperScissors.Move",
          "name": "player1Move",
          "type": "uint8"
        },
        {
          "internalType": "enum rockPaperScissors.Move",
          "name": "player2Move",
          "type": "uint8"
        },
        {
          "internalType": "uint256",
          "name": "bet",
          "type": "uint256"
        },
        {
          "internalType": "uint256",
          "name": "timeStart",
          "type": "uint256"
        },
        {
          "internalType": "uint256",
          "name": "pot",
          "type": "uint256"
        },
        {
          "internalType": "enum rockPaperScissors.Result",
          "name": "gameResult",
          "type": "uint8"
        }
      ],
      "stateMutability": "view",
      "type": "function"
    },
    {
      "inputs": [],
      "name": "iRPS",
      "outputs": [
        {
          "internalType": "contract IERC20",
          "name": "",
          "type": "address"
        }
      ],
      "stateMutability": "view",
      "type": "function"
    },
    {
      "inputs": [
        {
          "internalType": "enum rockPaperScissors.Move",
          "name": "playerMove",
          "type": "uint8"
        }
      ],
      "name": "makeMoveWallet",
      "outputs": [],
      "stateMutability": "nonpayable",
      "type": "function"
    },
    {
      "inputs": [
        {
          "internalType": "enum rockPaperScissors.Move",
          "name": "playerMove",
          "type": "uint8"
        }
      ],
      "name": "makeMoveWinnings",
      "outputs": [],
      "stateMutability": "nonpayable",
      "type": "function"
    },
    {
      "inputs": [
        {
          "internalType": "uint256",
          "name": "bet",
          "type": "uint256"
        }
      ],
      "name": "openGameWallet",
      "outputs": [],
      "stateMutability": "nonpayable",
      "type": "function"
    },
    {
      "inputs": [
        {
          "internalType": "uint256",
          "name": "bet",
          "type": "uint256"
        }
      ],
      "name": "openGameWinnings",
      "outputs": [],
      "stateMutability": "nonpayable",
      "type": "function"
    },
    {
      "inputs": [
        {
          "internalType": "uint256",
          "name": "withdrawalAmount",
          "type": "uint256"
        }
      ],
      "name": "withdrawWinnings",
      "outputs": [],
      "stateMutability": "nonpayable",
      "type": "function"
    }
  ],
  "bytecode": "0x608060405260008060006101000a81548173ffffffffffffffffffffffffffffffffffffffff021916908373ffffffffffffffffffffffffffffffffffffffff160217905550600160009054906101000a900473ffffffffffffffffffffffffffffffffffffffff16600260006101000a81548173ffffffffffffffffffffffffffffffffffffffff021916908373ffffffffffffffffffffffffffffffffffffffff1602179055506018600755348015620000ba57600080fd5b5060405162002ddd38038062002ddd8339818101604052810190620000e091906200013f565b80600160006101000a81548173ffffffffffffffffffffffffffffffffffffffff021916908373ffffffffffffffffffffffffffffffffffffffff16021790555050620001c4565b6000815190506200013981620001aa565b92915050565b600060208284031215620001585762000157620001a5565b5b6000620001688482850162000128565b91505092915050565b60006200017e8262000185565b9050919050565b600073ffffffffffffffffffffffffffffffffffffffff82169050919050565b600080fd5b620001b58162000171565b8114620001c157600080fd5b50565b612c0980620001d46000396000f3fe608060405234801561001057600080fd5b50600436106100f55760003560e01c806387b4061b11610097578063c2273faa11610066578063c2273faa14610229578063c5c9ebae14610245578063e2b3c20f14610261578063fd91da9e1461027d576100f5565b806387b4061b146101c9578063ad38867e146101e5578063aefafc21146101ef578063be35f6e31461020b576100f5565b8063582dba62116100d3578063582dba62146101695780635c231828146101855780637c7897a1146101a357806381cf763a146101ad576100f5565b8063117a5b90146100fa5780631479470214610131578063384be4481461014d575b600080fd5b610114600480360381019061010f919061208f565b610287565b60405161012898979695949392919061231c565b60405180910390f35b61014b6004803603810190610146919061208f565b610346565b005b61016760048036038101906101629190611ff5565b6104ed565b005b610183600480360381019061017e9190612062565b610557565b005b61018d6105b5565b60405161019a91906122d8565b60405180910390f35b6101ab6105d9565b005b6101c760048036038101906101c2919061208f565b610676565b005b6101e360048036038101906101de9190611ff5565b610714565b005b6101ed61077e565b005b61020960048036038101906102049190612062565b610ca8565b005b610213610d6d565b604051610220919061244d565b60405180910390f35b610243600480360381019061023e919061208f565b610d93565b005b61025f600480360381019061025a919061208f565b610e13565b005b61027b6004803603810190610276919061208f565b610e93565b005b610285610f24565b005b6006818154811061029757600080fd5b90600052602060002090600602016000915090508060000160009054906101000a900473ffffffffffffffffffffffffffffffffffffffff16908060010160009054906101000a900473ffffffffffffffffffffffffffffffffffffffff16908060010160149054906101000a900460ff16908060010160159054906101000a900460ff16908060020154908060030154908060040154908060050160009054906101000a900460ff16905088565b600360003373ffffffffffffffffffffffffffffffffffffffff1673ffffffffffffffffffffffffffffffffffffffff168152602001908152602001600020548110156103c8576040517f08c379a00000000000000000000000000000000000000000000000000000000081526004016103bf90612491565b60405180910390fd5b600260009054906101000a900473ffffffffffffffffffffffffffffffffffffffff1673ffffffffffffffffffffffffffffffffffffffff166323b872dd3033600754856104169190612678565b6040518463ffffffff1660e01b81526004016104349392919061239a565b602060405180830381600087803b15801561044e57600080fd5b505af1158015610462573d6000803e3d6000fd5b505050506040513d601f19601f820116820180604052508101906104869190612035565b50600754816104959190612678565b600360003373ffffffffffffffffffffffffffffffffffffffff1673ffffffffffffffffffffffffffffffffffffffff16815260200190815260200160002060008282546104e391906126d2565b9250508190555050565b60006104f7610fc1565b14610537576040517f08c379a000000000000000000000000000000000000000000000000000000000815260040161052e90612591565b60405180910390fd5b61054081611008565b61054982611107565b610553828261120e565b5050565b6000610561610fc1565b90506000600682815481106105795761057861282c565b5b9060005260206000209060060201905060008160020154905061059b81611008565b6105a582826114f5565b6105af82856115e0565b50505050565b60008054906101000a900473ffffffffffffffffffffffffffffffffffffffff1681565b60006105e3610fc1565b14610623576040517f08c379a000000000000000000000000000000000000000000000000000000000815260040161061a90612591565b60405180910390fd5b600061062d61198b565b90506000600682815481106106455761064461282c565b5b9060005260206000209060060201905060008160020154905061066781611008565b61067182846119d0565b505050565b6000610680610fc1565b146106c0576040517f08c379a00000000000000000000000000000000000000000000000000000000081526004016106b790612591565b60405180910390fd5b6000600682815481106106d6576106d561282c565b5b90600052602060002090600602019050600060075482600201546106fa9190612678565b905061070581611ba2565b61070f82846119d0565b505050565b600061071e610fc1565b1461075e576040517f08c379a000000000000000000000000000000000000000000000000000000000815260040161075590612591565b60405180910390fd5b61076781611ba2565b61077082611107565b61077a828261120e565b5050565b6000610788610fc1565b90506000600682815481106107a05761079f61282c565b5b9060005260206000209060060201905060008160000160009054906101000a900473ffffffffffffffffffffffffffffffffffffffff16905060008260010160009054906101000a900473ffffffffffffffffffffffffffffffffffffffff16905060008360010160149054906101000a900460ff16905060008460010160159054906101000a900460ff16905060008560020154905060008660040154905060006003811115610854576108536127fd565b5b846003811115610867576108666127fd565b5b1415801561089a575060006003811115610884576108836127fd565b5b836003811115610897576108966127fd565b5b14155b6108d9576040517f08c379a00000000000000000000000000000000000000000000000000000000081526004016108d090612571565b60405180910390fd5b8260038111156108ec576108eb6127fd565b5b8460038111156108ff576108fe6127fd565b5b14156109375760018760050160006101000a81548160ff0219169083600381111561092d5761092c6127fd565b5b0217905550610c8f565b6001600381111561094b5761094a6127fd565b5b84600381111561095e5761095d6127fd565b5b14801561098f57506002600381111561097a576109796127fd565b5b83600381111561098d5761098c6127fd565b5b145b156109c65760038760050160006101000a81548160ff021916908360038111156109bc576109bb6127fd565b5b0217905550610c8e565b600160038111156109da576109d96127fd565b5b8460038111156109ed576109ec6127fd565b5b148015610a1d5750600380811115610a0857610a076127fd565b5b836003811115610a1b57610a1a6127fd565b5b145b15610a545760028760050160006101000a81548160ff02191690836003811115610a4a57610a496127fd565b5b0217905550610c8d565b60026003811115610a6857610a676127fd565b5b846003811115610a7b57610a7a6127fd565b5b148015610aac575060016003811115610a9757610a966127fd565b5b836003811115610aaa57610aa96127fd565b5b145b15610ae35760028760050160006101000a81548160ff02191690836003811115610ad957610ad86127fd565b5b0217905550610c8c565b60026003811115610af757610af66127fd565b5b846003811115610b0a57610b096127fd565b5b148015610b3a5750600380811115610b2557610b246127fd565b5b836003811115610b3857610b376127fd565b5b145b15610b715760038760050160006101000a81548160ff02191690836003811115610b6757610b666127fd565b5b0217905550610c8b565b600380811115610b8457610b836127fd565b5b846003811115610b9757610b966127fd565b5b148015610bc8575060016003811115610bb357610bb26127fd565b5b836003811115610bc657610bc56127fd565b5b145b15610bff5760038760050160006101000a81548160ff02191690836003811115610bf557610bf46127fd565b5b0217905550610c8a565b600380811115610c1257610c116127fd565b5b846003811115610c2557610c246127fd565b5b148015610c56575060026003811115610c4157610c406127fd565b5b836003811115610c5457610c536127fd565b5b145b15610c895760028760050160006101000a81548160ff02191690836003811115610c8357610c826127fd565b5b02179055505b5b5b5b5b5b5b610c9e87878787878787611c34565b5050505050505050565b6000610cb2610fc1565b9050600060068281548110610cca57610cc961282c565b5b90600052602060002090600602019050600081600201549050610cec81611ba2565b80826004016000828254610d009190612622565b9250508190555080600360003373ffffffffffffffffffffffffffffffffffffffff1673ffffffffffffffffffffffffffffffffffffffff1681526020019081526020016000206000828254610d5691906126d2565b92505081905550610d6782856115e0565b50505050565b600260009054906101000a900473ffffffffffffffffffffffffffffffffffffffff1681565b6000610d9d610fc1565b14610ddd576040517f08c379a0000000000000000000000000000000000000000000000000000000008152600401610dd490612591565b60405180910390fd5b610de681611ba2565b610e1060008054906101000a900473ffffffffffffffffffffffffffffffffffffffff168261120e565b50565b6000610e1d610fc1565b14610e5d576040517f08c379a0000000000000000000000000000000000000000000000000000000008152600401610e5490612591565b60405180910390fd5b610e6681611008565b610e9060008054906101000a900473ffffffffffffffffffffffffffffffffffffffff168261120e565b50565b6000610e9d610fc1565b14610edd576040517f08c379a0000000000000000000000000000000000000000000000000000000008152600401610ed490612591565b60405180910390fd5b600060068281548110610ef357610ef261282c565b5b90600052602060002090600602019050600081600201549050610f1581611008565b610f1f82846119d0565b505050565b6000610f2e610fc1565b14610f6e576040517f08c379a0000000000000000000000000000000000000000000000000000000008152600401610f6590612591565b60405180910390fd5b6000610f7861198b565b9050600060068281548110610f9057610f8f61282c565b5b90600052602060002090600602019050600081600201549050610fb281611ba2565b610fbc82846119d0565b505050565b6000600460003373ffffffffffffffffffffffffffffffffffffffff1673ffffffffffffffffffffffffffffffffffffffff16815260200190815260200160002054905090565b600754816110169190612678565b600260009054906101000a900473ffffffffffffffffffffffffffffffffffffffff1673ffffffffffffffffffffffffffffffffffffffff1663dd62ed3e33306040518363ffffffff1660e01b81526004016110739291906122f3565b60206040518083038186803b15801561108b57600080fd5b505afa15801561109f573d6000803e3d6000fd5b505050506040513d601f19601f820116820180604052508101906110c391906120bc565b1015611104576040517f08c379a00000000000000000000000000000000000000000000000000000000081526004016110fb906124d1565b60405180910390fd5b50565b6000600560008373ffffffffffffffffffffffffffffffffffffffff1673ffffffffffffffffffffffffffffffffffffffff1681526020019081526020016000205414611189576040517f08c379a0000000000000000000000000000000000000000000000000000000008152600401611180906125d1565b60405180910390fd5b6000600460008373ffffffffffffffffffffffffffffffffffffffff1673ffffffffffffffffffffffffffffffffffffffff168152602001908152602001600020541461120b576040517f08c379a000000000000000000000000000000000000000000000000000000000815260040161120290612511565b60405180910390fd5b50565b60066040518061010001604052803373ffffffffffffffffffffffffffffffffffffffff1681526020018473ffffffffffffffffffffffffffffffffffffffff16815260200160006003811115611268576112676127fd565b5b815260200160006003811115611281576112806127fd565b5b815260200183815260200142815260200160008152602001600060038111156112ad576112ac6127fd565b5b815250908060018154018082558091505060019003906000526020600020906006020160009091909190915060008201518160000160006101000a81548173ffffffffffffffffffffffffffffffffffffffff021916908373ffffffffffffffffffffffffffffffffffffffff16021790555060208201518160010160006101000a81548173ffffffffffffffffffffffffffffffffffffffff021916908373ffffffffffffffffffffffffffffffffffffffff16021790555060408201518160010160146101000a81548160ff02191690836003811115611392576113916127fd565b5b021790555060608201518160010160156101000a81548160ff021916908360038111156113c2576113c16127fd565b5b02179055506080820151816002015560a0820151816003015560c0820151816004015560e08201518160050160006101000a81548160ff021916908360038111156114105761140f6127fd565b5b021790555050506000600160068054905061142b91906126d2565b905080600560008573ffffffffffffffffffffffffffffffffffffffff1673ffffffffffffffffffffffffffffffffffffffff1681526020019081526020016000208190555080600460003373ffffffffffffffffffffffffffffffffffffffff1673ffffffffffffffffffffffffffffffffffffffff168152602001908152602001600020819055507f7bd86e6f927804aae3c741093ce6b9dd2e0149e93fb40f857169878d2de2e0323384846040516114e89392919061239a565b60405180910390a1505050565b600260009054906101000a900473ffffffffffffffffffffffffffffffffffffffff1673ffffffffffffffffffffffffffffffffffffffff166323b872dd3330600754856115439190612678565b6040518463ffffffff1660e01b81526004016115619392919061239a565b602060405180830381600087803b15801561157b57600080fd5b505af115801561158f573d6000803e3d6000fd5b505050506040513d601f19601f820116820180604052508101906115b39190612035565b50600754816115c29190612678565b8260040160008282546115d59190612622565b925050819055505050565b3373ffffffffffffffffffffffffffffffffffffffff168260000160009054906101000a900473ffffffffffffffffffffffffffffffffffffffff1673ffffffffffffffffffffffffffffffffffffffff16148061168d57503373ffffffffffffffffffffffffffffffffffffffff168260010160009054906101000a900473ffffffffffffffffffffffffffffffffffffffff1673ffffffffffffffffffffffffffffffffffffffff16145b6116cc576040517f08c379a00000000000000000000000000000000000000000000000000000000081526004016116c3906124f1565b60405180910390fd5b60008054906101000a900473ffffffffffffffffffffffffffffffffffffffff1673ffffffffffffffffffffffffffffffffffffffff168260010160009054906101000a900473ffffffffffffffffffffffffffffffffffffffff1673ffffffffffffffffffffffffffffffffffffffff16141561177f576040517f08c379a0000000000000000000000000000000000000000000000000000000008152600401611776906125f1565b60405180910390fd5b3373ffffffffffffffffffffffffffffffffffffffff168260000160009054906101000a900473ffffffffffffffffffffffffffffffffffffffff1673ffffffffffffffffffffffffffffffffffffffff16141561188057600060038111156117eb576117ea6127fd565b5b8260010160149054906101000a900460ff16600381111561180f5761180e6127fd565b5b1461184f576040517f08c379a0000000000000000000000000000000000000000000000000000000008152600401611846906124b1565b60405180910390fd5b808260010160146101000a81548160ff02191690836003811115611876576118756127fd565b5b0217905550611987565b3373ffffffffffffffffffffffffffffffffffffffff168260010160009054906101000a900473ffffffffffffffffffffffffffffffffffffffff1673ffffffffffffffffffffffffffffffffffffffff16141561198157600060038111156118ec576118eb6127fd565b5b8260010160159054906101000a900460ff1660038111156119105761190f6127fd565b5b14611950576040517f08c379a0000000000000000000000000000000000000000000000000000000008152600401611947906124b1565b60405180910390fd5b808260010160156101000a81548160ff02191690836003811115611977576119766127fd565b5b0217905550611986565b600080fd5b5b5050565b6000600560003373ffffffffffffffffffffffffffffffffffffffff1673ffffffffffffffffffffffffffffffffffffffff1681526020019081526020016000205090565b3373ffffffffffffffffffffffffffffffffffffffff168260010160009054906101000a900473ffffffffffffffffffffffffffffffffffffffff1673ffffffffffffffffffffffffffffffffffffffff161480611a9d575060008054906101000a900473ffffffffffffffffffffffffffffffffffffffff1673ffffffffffffffffffffffffffffffffffffffff168260010160009054906101000a900473ffffffffffffffffffffffffffffffffffffffff1673ffffffffffffffffffffffffffffffffffffffff16145b611adc576040517f08c379a0000000000000000000000000000000000000000000000000000000008152600401611ad3906125b1565b60405180910390fd5b80600460003373ffffffffffffffffffffffffffffffffffffffff1673ffffffffffffffffffffffffffffffffffffffff168152602001908152602001600020819055506000600560003373ffffffffffffffffffffffffffffffffffffffff1673ffffffffffffffffffffffffffffffffffffffff168152602001908152602001600020819055507f933746f871fe95cc39e6a916bbdffa53550239e4aae483fd862ccb8cf87fa3f63382604051611b96929190612424565b60405180910390a15050565b60075481611bb09190612678565b600360003373ffffffffffffffffffffffffffffffffffffffff1673ffffffffffffffffffffffffffffffffffffffff168152602001908152602001600020541015611c31576040517f08c379a0000000000000000000000000000000000000000000000000000000008152600401611c2890612531565b60405180910390fd5b50565b60006003811115611c4857611c476127fd565b5b8760050160009054906101000a900460ff166003811115611c6c57611c6b6127fd565b5b1415611cad576040517f08c379a0000000000000000000000000000000000000000000000000000000008152600401611ca490612551565b60405180910390fd5b60016003811115611cc157611cc06127fd565b5b8760050160009054906101000a900460ff166003811115611ce557611ce46127fd565b5b1415611d5157611cf58683611e97565b611cff8583611e97565b60008760040181905550611d138686611efe565b7f63559809d84a1ccf86e633620ce5391298393b5aaa652263e64edb17a1733e8f8483604051611d44929190612468565b60405180910390a1611e8e565b60026003811115611d6557611d646127fd565b5b8760050160009054906101000a900460ff166003811115611d8957611d886127fd565b5b1415611df157611d998682611e97565b60008760040181905550611dad8686611efe565b7f3fe681db966d1213cabee81024227da8e5f17a4aa50ae35c267a3cbe256e60b48685878685604051611de49594939291906123d1565b60405180910390a1611e8d565b600380811115611e0457611e036127fd565b5b8760050160009054906101000a900460ff166003811115611e2857611e276127fd565b5b1415611e8c57611e388582611e97565b60008760040181905550611e4c8686611efe565b7faf2fc22f01a2b76fcf82f31fe6b5e2bf8e46646f0b2e36752236be479a4908268584888785604051611e839594939291906123d1565b60405180910390a15b5b5b50505050505050565b60075481611ea59190612678565b600360008473ffffffffffffffffffffffffffffffffffffffff1673ffffffffffffffffffffffffffffffffffffffff1681526020019081526020016000206000828254611ef39190612622565b925050819055505050565b6000600460008473ffffffffffffffffffffffffffffffffffffffff1673ffffffffffffffffffffffffffffffffffffffff168152602001908152602001600020819055506000600460008373ffffffffffffffffffffffffffffffffffffffff1673ffffffffffffffffffffffffffffffffffffffff168152602001908152602001600020819055505050565b600081359050611f9b81612b7e565b92915050565b600081519050611fb081612b95565b92915050565b600081359050611fc581612bac565b92915050565b600081359050611fda81612bbc565b92915050565b600081519050611fef81612bbc565b92915050565b6000806040838503121561200c5761200b61285b565b5b600061201a85828601611f8c565b925050602061202b85828601611fcb565b9150509250929050565b60006020828403121561204b5761204a61285b565b5b600061205984828501611fa1565b91505092915050565b6000602082840312156120785761207761285b565b5b600061208684828501611fb6565b91505092915050565b6000602082840312156120a5576120a461285b565b5b60006120b384828501611fcb565b91505092915050565b6000602082840312156120d2576120d161285b565b5b60006120e084828501611fe0565b91505092915050565b6120f281612706565b82525050565b61210181612774565b82525050565b61211081612786565b82525050565b61211f81612798565b82525050565b6000612132601883612611565b915061213d82612860565b602082019050919050565b6000612155601e83612611565b915061216082612889565b602082019050919050565b6000612178602a83612611565b9150612183826128b2565b604082019050919050565b600061219b601583612611565b91506121a682612901565b602082019050919050565b60006121be602383612611565b91506121c98261292a565b604082019050919050565b60006121e1602e83612611565b91506121ec82612979565b604082019050919050565b6000612204601183612611565b915061220f826129c8565b602082019050919050565b6000612227602583612611565b9150612232826129f1565b604082019050919050565b600061224a603a83612611565b915061225582612a40565b604082019050919050565b600061226d601883612611565b915061227882612a8f565b602082019050919050565b6000612290602183612611565b915061229b82612ab8565b604082019050919050565b60006122b3603183612611565b91506122be82612b07565b604082019050919050565b6122d28161276a565b82525050565b60006020820190506122ed60008301846120e9565b92915050565b600060408201905061230860008301856120e9565b61231560208301846120e9565b9392505050565b600061010082019050612332600083018b6120e9565b61233f602083018a6120e9565b61234c6040830189612107565b6123596060830188612107565b61236660808301876122c9565b61237360a08301866122c9565b61238060c08301856122c9565b61238d60e0830184612116565b9998505050505050505050565b60006060820190506123af60008301866120e9565b6123bc60208301856120e9565b6123c960408301846122c9565b949350505050565b600060a0820190506123e660008301886120e9565b6123f36020830187612107565b61240060408301866120e9565b61240d6060830185612107565b61241a60808301846122c9565b9695505050505050565b600060408201905061243960008301856120e9565b61244660208301846122c9565b9392505050565b600060208201905061246260008301846120f8565b92915050565b600060408201905061247d6000830185612107565b61248a60208301846122c9565b9392505050565b600060208201905081810360008301526124aa81612125565b9050919050565b600060208201905081810360008301526124ca81612148565b9050919050565b600060208201905081810360008301526124ea8161216b565b9050919050565b6000602082019050818103600083015261250a8161218e565b9050919050565b6000602082019050818103600083015261252a816121b1565b9050919050565b6000602082019050818103600083015261254a816121d4565b9050919050565b6000602082019050818103600083015261256a816121f7565b9050919050565b6000602082019050818103600083015261258a8161221a565b9050919050565b600060208201905081810360008301526125aa8161223d565b9050919050565b600060208201905081810360008301526125ca81612260565b9050919050565b600060208201905081810360008301526125ea81612283565b9050919050565b6000602082019050818103600083015261260a816122a6565b9050919050565b600082825260208201905092915050565b600061262d8261276a565b91506126388361276a565b9250827fffffffffffffffffffffffffffffffffffffffffffffffffffffffffffffffff0382111561266d5761266c6127ce565b5b828201905092915050565b60006126838261276a565b915061268e8361276a565b9250817fffffffffffffffffffffffffffffffffffffffffffffffffffffffffffffffff04831182151516156126c7576126c66127ce565b5b828202905092915050565b60006126dd8261276a565b91506126e88361276a565b9250828210156126fb576126fa6127ce565b5b828203905092915050565b60006127118261274a565b9050919050565b60008115159050919050565b600081905061273282612b56565b919050565b600081905061274582612b6a565b919050565b600073ffffffffffffffffffffffffffffffffffffffff82169050919050565b6000819050919050565b600061277f826127aa565b9050919050565b600061279182612724565b9050919050565b60006127a382612737565b9050919050565b60006127b5826127bc565b9050919050565b60006127c78261274a565b9050919050565b7f4e487b7100000000000000000000000000000000000000000000000000000000600052601160045260246000fd5b7f4e487b7100000000000000000000000000000000000000000000000000000000600052602160045260246000fd5b7f4e487b7100000000000000000000000000000000000000000000000000000000600052603260045260246000fd5b600080fd5b7f5265717565737420657863656564732062616c616e63652e0000000000000000600082015250565b7f596f7527766520616c7265616479206d61646520796f7572206d6f7665210000600082015250565b7f596f75206d75737420696e63726561736520796f75722052505320617070726f60008201527f76616c2066697273742e00000000000000000000000000000000000000000000602082015250565b7f546869732069736e277420796f75722067616d65210000000000000000000000600082015250565b7f506c617965722063757272656e746c7920616c726561647920696e206120676160008201527f6d652e0000000000000000000000000000000000000000000000000000000000602082015250565b7f596f7520646f6e2774206861766520656e6f75676820746f6b656e7320696e2060008201527f796f75722077696e6e696e67732e000000000000000000000000000000000000602082015250565b7f47616d65206e6f742066696e6973686564000000000000000000000000000000600082015250565b7f57616974696e6720666f72206f74686572706c6179657220746f206d616b652060008201527f6d6f76652e000000000000000000000000000000000000000000000000000000602082015250565b7f506c656173652066696e69736820796f75722063757272656e742067616d652060008201527f6265666f7265207374617274696e672061206e6577206f6e652e000000000000602082015250565b7f556e61626c6520746f206a6f696e20746869732067616d650000000000000000600082015250565b7f506c6179657220616c726561647920686173206f70656e206368616c6c656e6760008201527f6500000000000000000000000000000000000000000000000000000000000000602082015250565b7f43616e2774206d616b6520796f7572206d6f7665206265666f726520616e6f7460008201527f68657220706c61796572206a6f696e732e000000000000000000000000000000602082015250565b60048110612b6757612b666127fd565b5b50565b60048110612b7b57612b7a6127fd565b5b50565b612b8781612706565b8114612b9257600080fd5b50565b612b9e81612718565b8114612ba957600080fd5b50565b60048110612bb957600080fd5b50565b612bc58161276a565b8114612bd057600080fd5b5056fea264697066735822122045d41da0a925af81465b8b7daf239d11dbc1318fa5d4faba110bc4e1d28a214664736f6c63430008070033",
  "linkReferences": {},
  "deployedLinkReferences": {}
}